:1012E500496E697420436F6D706C657465210D0AD4
:1012F5000048756D20537769746368210D0A0D0ADE
:10130500005374617475733A004D696E3A004D610E
:10131500783A0048756D204F6E0048756D204F6610
:1013250066006E6565645F68756D3A25750D0A68BA
:10133500756D5F6F6E3A25750D0A0D0A002743001E
:1013450025005374617475733A25750D0A54656DDE
:1013550070657261747572653A25750D0A48756D0B
:1013650069646974793A25750D0A25753C48756D6A
:101375003C25750D0A0D0A00696E630D0A0064654A
:10138500630D0A000000000000000000005F00007F
:1013950000000700070000147F147F1400242A7F33
:1013A5002A120023130864620036495522500000B2
:1013B5000503000000001C224100000041221C0022
:1013C5000014083E08140008083E080800005030C4
:1013D5000000000808080808000060600000002000
:1013E50010080402003E5149453E0000427F40007E
:1013F500004261514946002141454B310018141204
:101405007F10002745454539003C4A4949300001D0
:101415007109050300364949493600064949291E1F
:101425000000363600000000563600000008142281
:101435004100001414141414000041221408000281
:101445000151090600324979413E007E1111117E94
:10145500007F49494936003E41414122007F4141D3
:10146500221C007F49494941007F09090901003EC5
:101475004149497A007F0808087F0000417F410003
:10148500002040413F01007F08142241007F404079
:101495004040007F020C027F007F0408107F003E61
:1014A5004141413E007F09090906003E4151215E47
:1014B500007F091929460046494949310001017F44
:1014C5000101003F4040403F001F2040201F003FDA
:1014D5004038403F0063140814630007087008078C
:1014E50000615149454300007F4141000002040865
:1014F5001020000041417F00000402010204004069
:10150500404040400000010204000020545454783B
:10151500007F48444438003844444420003844445B
:10152500487F00385454541800087E090102000C05
:101535005252523E007F080404780000447D40006A
:10154500002040443D00007F102844000000417FFA
:101555004000007C04180478007C080404780038F6
:1015650044444438007C1414140800081414187CEE
:10157500007C0804040800485454542000043F44E7
:101585004020003C4040207C001C2040201C003CAA
:101595004030403C004428102844000C5050503C3A
:1015A500004464544C440000083641000000007FAC
:1015B50000000000413608000010080810080078F7
:1015C500464146780008082A1C0800081C2A080815
:1015D5000004027F02040010207F20100015167CF5
:1015E500161500033B4444440003037C14140044D3
:1015F500281028440008082A080800384448302CD8
:1016050000F854545428002854544420003E4909F5
:1016150009060038444C542400403F08081F001FA9
:1016250008083F40003C4A4A4A3C00586404645854
:1016350000443C047C44003028102818003028243D
:10164500283000081C08080E0000F000000000FF0C
:1016550000000000F000000000003F202020203F97
:10166500202020207F0000000008884828180FE867
:101675000808080808080000002011090541817FB5
:10168500010105091120000020202020202020FF35
:10169500202020202020200080804020100C0300E6
:1016A500030C102040808000403011969090919658
:1016B5009090981413503000040404040444847E6C
:1016C5000605040404040400104C444444C475464F
:1016D5004444444444540C004020100846E1504C16
:1016E50043405060C0000000000000007F494949A8
:1016F50049497F000000000000FF49494949FF00B2
:10170500FF49494949FF00001010D0FF50900404DB
:1017150084E41C8404040400040300FF00040201A3
:0817250000FF000001060000B6
:1021090041011E014101252C4101273044012000D4
:07211900000000C10DC10E22
:10172D004392045391FB43948053937FD288D2A864
:10173D001223E01221581224477BFF7A16794DE4CB
:10174D009000DEF0A37404F07D0A121F797BFF7AFE
:10175D001679CD9000DE7402F0A304F07D14121FF3
:10176D00797FD07E071223B31223457BFF7A12793E
:10177D00E5021999D287A20D300E01B35016C2871A
:10178D007F647E001223B3D287B20D7BFF7A12796C
:10179D00F6120ECD7BFF7A137906E49000DEF0FD94
:1017AD0012238290011EE0FCE41203589000DC121B
:1017BD000858E49000E0F07D07FF121A557BFF7A80
:1017CD0013790E9000DE7403F0E4FD122382900174
:1017DD0025E0FCE41203589000DC120858E4900058
:1017ED00E0F07D047F03121A557BFF7A1379139075
:1017FD0000DE7403F07D07122382900127E0FCE4E4
:10180D001203589000DC120858E49000E0F07D0BB4
:10181D007F03121A5590011EE024FE700302199FDA
:10182D001470030219FA24026003021781D2927F09
:10183D00587E021223B3C2927F587E021223B31236
:10184D001E6078D67C007D017E007F0412068F908D
:10185D0000D6E0900126F09000D8E0900128F0121B
:10186D001CE2900120120858900125E0FF900128FC
:10187D00E0FEC39F5002D20E900127E0FFEED39FF2
:10188D004002C20E7B0DE4FD7F051221EC300D08E8
:10189D007BFF7A1379188009200D117BFF7A13795C
:1018AD001F9000DE7405F0E4FD1223827BFF7A1396
:1018BD007927A20EE4FF339000DDCFF0A3EFF0A265
:1018CD000DE4FF33A3CFF0A3EFF0120ECD90012660
:1018DD00E0FCE41203589000DC120858E49000E09C
:1018ED00F0FD7F01121A557BFF7A1379429000DECD
:1018FD007401F07D02122382900128E0FCE41203B2
:10190D00589000DC120858E49000E0F07D077F014C
:10191D00121A557BFF7A1379459000DE7401F07D24
:10192D0009122382900120E0FCA3E0FDA3E0FEA3B9
:10193D00E0FF9000DC1208589000E07403F0E4FD25
:10194D007F04121A557BFF7A13794790011EE0FF31
:10195D009000DDE4F0A3EFF09000D6E0FF9000DF03
:10196D00E4F0A3EFF09000D8E0FF9000E1E4F0A3E5
:10197D00EFF0900125E0FF9000E3E4F0A3EFF0908D
:10198D000127E0FF9000E5E4F0A3EFF0120ECD0289
:10199D001781C295C2943095247F147E001223B313
:1019AD0020951A7BFF7A13797D120ECD900127E0D9
:1019BD00FF900125E004F0C39F4002EFF020940357
:1019CD000217817F147E001223B330940302178116
:1019DD007BFF7A137983120ECD900125E014F0D39D
:1019ED00940A4003021781740AF0021781C295C24E
:1019FD00943095217F147E001223B32095177BFF21
:101A0D007A13797D120ECD900127E004F0C3945026
:101A1D0040037450F02094030217817F147E00124E
:101A2D0023B33094030217817BFF7A137983120E4F
:101A3D00CD900125E0FF900127E014F0D39F4003E6
:081A4D00021781EFF00217817E
:0300230002239B1A
:05239B00C0D075D00860
:1023A000309806C298AF998F99309904C299C20AA1
:0323B000D0D03258
:030003000220BA1E
:1020BA00C0E0C0F0C083C082C0D075D000C000C0EC
:1020CA0001C002C003C004C005C006C0077F147E59
:1020DA00001223B320B20D90011EE004F0E0B40414
:1020EA00037401F0D007D006D005D004D003D00283
:0F20FA00D001D000D0D0D082D083D0F0D0E0324F
:10241800EF1FAC0670011E4C600500000080F12221
:1023B300EF1FAC0670011E4C600D0000007D0B7C0E
:0723C300BEDCFEDDFC80E939
:0123CA0022F0
:1023CB00EF1FAC0670011E4C600A7D6C7C91DCFE2D
:0423DB00DDFC80ECB9
:0123DF0022DB
:05246500007F19DFFEFD
:01246A00224F
:0E24380000007F017ED87D23DDFEDEFCDFFA92
:012446002273
:0E244700538EBF53890F438910C28FC28E225D
:101CE2009000DA12086400000000E49000DEF0A325
:101CF200F0A3F0A3F0F58BF58DD2851224651224A2
:101D020065C2853086FDD28E308634AF8D9000DE7E
:101D1200E4F0A3EFF0AF8D9000DEE0FCA3E0FD6FF6
:101D22007001EC60F0AF8DD3ED9FEC940040D99040
:101D320000E1E004F070D19000E0E004F080C9C25C
:101D42008EAF8DEFFEAD8B7C00E42DFDEC3EFCE40E
:101D52001203537B007AFF797F7847120227C0046F
:101D6200C005C006C0079000E0E0FCA3E0FDE4125D
:101D72000353D003D002D001D00012002D7B007A91
:101D8200FF797F784712011EE4FBFA7961784912E4
:101D92000227E4FBFA79AA784312011EE4FBFAF95E
:101DA2007840120227E4FBFA79C8784212011E90A9
:101DB20000DA1208589000DAE0FCA3E0FDA3E0FE8E
:031DC200A3E0FF9C
:011DC50022FB
:10212000410002014100CF01C109420069000042A3
:1021300000D000004200D20000C10B4200D40000D9
:0A214000420000000042000300000E
:1023E00075985075D7E075D6FE758E14438E01D260
:0423F000ACD2AF229A
:1023F400759A1075D7E075D6FE438E1443AF01D29B
:02240400AF2205
:08245500200AFDD20A8F992232
:08245D00200CFDD20C8F9B2224
:10236700AE07900002E0B40103122455900002E08A
:0B237700B40205AF0612245DAF062281
:101DC6009000CFE064017048900069E07002A3E0E3
:101DD60060F6C2AC9000D0E0FEA3E0FF2405F582D9
:101DE60074003EF583E0FBEF2401FFE43EFE7C0039
:101DF6007D6412071F9000D0ECF0A3EDF090006A0E
:101E0600E024FFF0900069E034FFF0D2ACAF03228B
:101E16009000D4E07002A3E060F653AFFE9000009D
:101E2600E0FEA3E0FF246BF58274003EF583E0FB41
:101E3600EF2401FFE43EFE7C007D6412071F900044
:101E460000ECF0A3EDF09000D5E024FFF09000D474
:091E5600E034FFF043AF01AF03DB
:011E5F002260
:10222700900129EBF0A3EAF0A3E9F0900129E0FB84
:10223700A3E0FAA3E0F91206B56017900129A3E419
:1022470075F001120755A9F0FA1206B5FF122455C9
:0322570080D92209
:10225A0090012CEBF0A3EAF0A3E9F090012CE0FB4B
:10226A00A3E0FAA3E0F91206B5601790012CA3E4E3
:10227A0075F001120755A9F0FA1206B5FF12245D8E
:03228A0080D922D6
:04246B00000000006D
:10242800C293122438D293122465122465022465BB
:10206A00E49000E7F09000E6F09000E7E0FF25E05A
:10207A00F03093FD1224651224651224651224653A
:10208A001224659000E7E03093114401F0122465B0
:10209A00122465122465122465800354FEF0900010
:0F20AA00E6E004F0E0C3940840BF9000E7E0FFD9
:0120B9002204
:101E600078E17C007D017BFF7A24796B7E007F0422
:101E700012068F122428D2932093FD20936830936A
:101E8000FD2093FD12206A9000DDEFF012206A9091
:101E900000DEEFF012206A9000DBEFF012206A9073
:101EA00000DCEFF012206A9000DAEFF0D29390009D
:101EB000DCE0FBFF9000DBE0FA2FFFE433FE900054
:101EC000DDE0F97C002FFFEC3EFEA3E02FFFEC3EAF
:101ED000A3F0A3EFF0A3EAF0A3EBF0A3E9F09000E6
:0C1EE000DEE09000E4F07B017A0079E184
:011EEC0022D3
:100930000000000000000000005F00000000070051
:10094000070000147F147F1400242A7F2A1200233A
:100950001308646200364955225000000503000068
:1009600000001C224100000041221C000014083E2F
:1009700008140008083E0808000050300000000875
:100980000808080800006060000000201008040249
:10099000003E5149453E0000427F40000042615107
:1009A0004946002141454B31001814127F100027A1
:1009B00045454539003C4A49493000017109050364
:1009C00000364949493600064949291E0000363695
:1009D00000000000563600000008142241000014F8
:1009E00014141414000041221408000201510906D5
:1009F00000324979413E007E1111117E007F494944
:100A00004936003E41414122007F4141221C007F86
:100A100049494941007F09090901003E4149497A94
:100A2000007F0808087F0000417F4100002040410E
:100A30003F01007F08142241007F40404040007F7A
:100A4000020C027F007F0408107F003E4141413EBE
:100A5000007F09090906003E4151215E007F091906
:100A600029460046494949310001017F0101003F03
:100A70004040403F001F2040201F003F4038403F83
:100A800000631408146300070870080700615149E7
:100A9000454300007F41410000020408102000008F
:100AA00041417F00000402010204004040404040F8
:100AB000000001020400002054545478007F484490
:100AC000443800384444442000384444487F0038C7
:100AD0005454541800087E090102000C5252523E30
:100AE000007F080404780000447D4000002040445A
:100AF0003D00007F102844000000417F4000007C42
:100B000004180478007C080404780038444444380D
:100B1000007C1414140800081414187C007C0804C9
:100B2000040800485454542000043F444020003C32
:100B30004040207C001C2040201C003C4030403CB9
:100B4000004428102844000C5050503C0044645489
:100B50004C440000083641000000007F0000000007
:100B60004136080000100808100800784641467811
:100B70000008082A1C0800081C2A08080004027F34
:100B800002040010207F20100015167C16150003AB
:100B90003B4444440003037C1414004428102844BC
:100BA0000008082A080800384448302C00F854543B
:100BB0005428002854544420003E490909060038AE
:100BC000444C542400403F08081F001F08083F40C1
:100BD000003C4A4A4A3C00586404645800443C04BF
:100BE0007C440030281028180030282428300008C1
:100BF0001C08080E0000F000000000FF00000000CC
:100C0000F000000000003F202020203F2020202076
:100C10007F0000000008884828180FE80808080826
:100C200008080000002011090541817F0101050924
:100C30001120000020202020202020FF2020202024
:100C40002020200080804020100C0300030C102086
:100C5000408080004030119690909196909098142A
:100C600013503000040404040444847E0605040484
:100C700004040400104C444444C4754644444444B1
:100C800044540C004020100846E1504C4340506052
:100C9000C0000000000000007F49494949497F0029
:100CA0000000000000FF49494949FF00FF49494948
:100CB00049FF00001010D0FF5090040484E41C840D
:100CC00004040400040300FF0004020100FF00000C
:100CD00001060000003E5149453E0000427F4000B1
:100CE000004261514946002141454B310018141220
:100CF0007F10002745454539003C4A4949300001ED
:100D00007109050300364949493600064949291E3B
:100D1000000060600000000808080808FFFFFFFFEF
:100D2000FFFF0484E45C44C42010E82724E4342C4E
:100D3000E00002017F10103F80601F09093F4989D0
:100D40007F00100C4444444445C644444444441485
:100D50000C008040201E2040407F444444444440D6
:100D60004000040444C44F4444C424242FB4240445
:100D7000040040442424150C04FE040C15242444CF
:100D800040000000F8494A4C48F8484C4A49F800ED
:100D9000000010101312121212FF1212121213106E
:100DA0001000404042CC0040404040FF40404040A6
:100DB00040000000007F2010000000FF0000000045
:100DC00000004040407C404040FF44444444444094
:100DD0004000809088464040202F101008040200F8
:100DE0000000000000000000FF4040404040400084
:100DF00000004040404040407F4040404040404034
:100E00004000008060F807404848E85F4848484094
:100E10004000010000FF0000020B1222D20A06006F
:100E200000001060028C00445454547F54545444C5
:100E3000400004047E010000FF15151555957F0044
:100E40000000100C05555555857F855555550514E1
:100E50000C000404020A09292A4C48A919020204B8
:020E600004008C
:0D214A004A010A0001020304050607080906
:1021A30075F020EBA42CF582E435F0F583E5822469
:0E21B30022F582E583340DF583E493FF7D0170
:1021C100E4FEC281ED7004C2828002D282EEC39429
:1021D100085015EF30E704D2838002C283C284EF36
:0A21E10025E0FFD2840E80E5D281D4
:0121EB0022D1
:10234500E4FCFBFD7F0C1221C17F801221C1E4FB5F
:102355007D01E4FF1221C10BEBB454F40CECB4067F
:01236500ED8A
:012366002254
:10215800C2807F017E001223B3D280C2817F017EBC
:10216800001223B3D2817F017E001223B3E4FD7FE6
:10217800211221C17FB81221C17F061221C17F130C
:102188001221C17F201221C1122345E4FD7F0C12C8
:0B21980021C1C2817FC87E000223B37A
:10240600AC07ED4440FFE4FD1221C1EC4480FF021D
:0224160021C1E2
:06228D00FF9000DAE0FD05
:10229300E4FCEF75F006A4FF122406E4FC75F006D7
:1022A300EBA42CF582E435F0F583E58224D4F582A2
:0C22B300E583340C1221BA0CECB406E1F7
:0122BF0022FC
:02232100AC0707
:10232300E4FB75F006ECA42470F582E5F03408F5BF
:1023330083E5822BF582E435831221BA0BEBB406D5
:01234300E1B8
:012344002276
:10000600AA07EDD3940D4002E4FDED75F006A4FFBA
:0C001600AE03AD06122406AF0202232147
:1022C0009000DFEBF0A3EAF0A3E9F09000DFE0FB81
:1022D000A3E0FAA3E0F91206B560179000DFA3E4CB
:1022E00075F001120755A9F0FA1206B5FF12232165
:0322F00080D92270
:10238200EDD3940D4002E4FDED75F006A4FF90003C
:09239200DEE0FD1224060222C067
:0422F300A907AA0588
:1022F700E4FCE9C454F0FF122406E4FC1221A30C09
:10230700ECB410F8E9C454F0FFEA04FD1224067C8B
:09231700101221A30CECB420F813
:01232000229A
:0621EC00AA05A903AE07DD
:1021F200EA75F006A4FFAD06122406E4FBEAFFE945
:10220200C39FFFE49400FE7C007D0612070DEBC322
:102212009FEE6480F8748098500A7D01E4FF1221D9
:04222200C10B80D993
:012226002295
:081A55009000DAEFF0A3EDF0C0
:101A5D00E49000F7F09000FAF0A3F09000DCE0FCC9
:101A6D00A3E0FDA3E0FEA3E0FF9000FC120858E404
:101A7D00FFFEFDFC9000FCE0F8A3E0F9A3E0FAA363
:101A8D00E0FB1202C4501E9000FCE0FCA3E0FDA39D
:101A9D00E0FEA3E0FF12033D9000FC120858E49015
:101AAD0000FBF080069000FB7401F09000E0E01464
:101ABD00601414601C1460242403702A9000F5E453
:101ACD00F0A304F080209000F5E4F0A3740AF080F8
:101ADD00159000F5E4F0A37464F0800A9000F5749D
:101AED0003F0A374E8F09000F5E0FCA3E0FDE41230
:101AFD0003539000FCE0F8A3E0F9A3E0FAA3E0FBA8
:101B0D0012011E12038C8038E47B0AFAF9F8900159
:101B1D0000E0FCA3E0FDA3E0FEA3E0FF1207A79009
:101B2D0000F7E004F0EF4E601F900100E0FCA3E031
:101B3D00FDA3E0FEA3E0FFE47B0AFAF9F81207A784
:101B4D0090010012085880C09000F5E0FCA3E0FD64
:101B5D00E41203539000FCE0F8A3E0F9A3E0FAA32C
:101B6D00E0FB12011E12038C900100120858E47F55
:101B7D00E87E03FDFC900100E0F8A3E0F9A3E0FA94
:101B8D00A3E0FBC3120847500C9000E0E060069004
:101B9D0000F77404F09000F7E0A3F09000F7E06018
:101BAD0052E47B0AFAF9F8900100E0FCA3E0FDA3F2
:101BBD00E0FEA3E0FF1207A7AF039000F7E025E0DA
:101BCD0024DFF582E43400F583EAF0A3EFF0900111
:101BDD0000E0FCA3E0FDA3E0FEA3E0FFE47B0AFA36
:101BED00F9F81207A79001001208589000F7E014B9
:101BFD00F080A89000F5E0FCA3E0FDE41203539003
:101C0D0000FCE0F8A3E0F9A3E0FAA3E0FB12011E4B
:101C1D0012038C9001001208589000FBE0700A909E
:101C2D0000DBE0147B0B12228DE4FFFEFDFC900126
:101C3D0000E0F8A3E0F9A3E0FAA3E0FBC312084724
:101C4D00606D9000F8E0FF9000F7E06F7003021CEC
:101C5D00E19000FAE09000F97003F080037401F058
:101C6D009000F7E0FF25E024E1F582E43400F583F0
:101C7D00A3E0FB9000DBE02FFF9000F9E02F122294
:101C8D008D9000F7E004F09000E0E0FF60B490006C
:101C9D00F8E0C39FFF9000F7E0FEB507A59000FAAE
:101CAD007401F09000DBE02E7B0A12228D80939060
:101CBD0000DAE0FFA3E0FD9000F7E0FEED2EFB1251
:101CCD0021ECE0FF9000DBE02FFF9000DAE0FDE477
:041CDD00FB12229341
:011CE10022E0
:0F2004009000E2EBF0A3EAF0A3E9F0A3EDF0FF08
:10201300A3E025E0FD122406E4FC9000E2E0FBA32C
:10202300E0FAA3E0F98C827583001206CEFF7D01EE
:102033001221C10CECB410E29000E5E0FFA3E0250F
:10204300E004FD1224067C109000E2E0FBA3E0FA1A
:10205300A3E0F98C827583001206CEFF7D01122165
:06206300C10CECB420E208
:012069002254
:0E1F79009000DAEBF0A3EAF0A3E9F0A3EDF09C
:101F8700E49000E1F09000E0F09000DFE0FFA3E0D4
:101F9700FEC39F5067EE75F010A4FF9000DDE07C54
:101FA700002FFFEC35F0FED3EF943AEE6480948077
:101FB700400CE4F09000E1F09000DEE004F09000C7
:101FC700E0E075F020A4FF9000DAE0FBA3E0FAA3BD
:101FD700E02FF9EA35F0FA9000E1E0C454F0FF9001
:101FE70000DDE02FFDA3E09000E6F0122004900052
:0C1FF700E1E004F09000E0E004F0808DD8
:0120030022BA
:100026000203F8E86480F8E933E83360110460F00D
:10003600ED33EC337009E8FCE9FDEAFEEBFF220440
:1000460060DED3EB9FEA9EE99DE8C2E78CF0C2F73B
:1000560095F0400CE8CCF8E9CDF9EACEFAEBCFFB07
:100066001203C385D0F05804700320D5B3E804709A
:10007600075002B2D502040292D5EC0460F7E4CC34
:10008600C0E0C398F8603B94186008400DD0E0FBD0
:100096000203DAE4FBFAC9FC8028E830E406E4C986
:1000A600FBE4CAFCE830E305E4C9CACBFCE8540724
:1000B6006010F8C3E913F9EA13FAEB13FBEC13FC2F
:1000C600D8F130F52FC3E49CFCEF9BFFEE9AFEEDD2
:1000D60099FDD0E0FBEF4E4D4C701222DB0302037C
:1000E600FFEC2CFCEF33FFEE33FEED33FDED30E796
:1000F600EB0203DAEF2BFFEE3AFEED39FDD0E0FB23
:1001060050130BBB0003020402ED13FDEE13FEEFCA
:0801160013FFEC13FC0203DAF5
:10011E00EC4D6011E8497017ED33EC3304600DE4DB
:10012E00FCFFFEFD22E933E8330470F80203F812F7
:10013E0003C358046009E4CC2481500628500902F8
:10014E0004022840030203FFC0E0EB4A7044B9806A
:10015E0006D0E0FB0203EEEF4E701CBD8008EBFFF5
:10016E00EAFEE9FD80EBE98DF0A4FEE5F002020760
:10017E00E9CDF9EAFEEBFFEF89F0A4FCE5F0CE89BC
:10018E00F0A42EFFE435F0CD89F0A42DFEE435F079
:10019E008067EF4E7005BD80D780C3EF8BF0A4ACA7
:1001AE00F0EE8BF0A42CFCE435F0F8EF8AF0A42CE2
:1001BE00E5F038FCE433CB8DF0A42CFCE5F03BF8F5
:1001CE00EE8AF0A42CFCE5F038F8E433CF89F0A4E5
:1001DE002CFCE5F038CF3400CE89F0A42FFFE5F0EB
:1001EE003EFEE433C98DF0A42EFEE5F039CD8AF043
:1001FE00A42FFFE5F03EFEE43DFD33D0E0FB5007BB
:10020E000BBB000F020402EC2CFCEF33FFEE33FEAF
:06021E00ED33FD0203DADE
:10022400020402EC5D046005E8590470030203F85B
:100234001203C3580460F6EC4860F2EC7004FDFE4F
:10024400FF22C860DB2481C85009C39860025006AD
:100254000203FF9850CAF582E9294B4A7005AB8224
:100264000203EE75F0007C1A7880C3EF9BEE9AEDE2
:1002740099400DC3EF9BFFEE9AFEED99FDE842F025
:10028400DC23ACF0D0E0FFD0E0FED0E0FDAB822078
:10029400E7101BEB60BAEC2CFCEF33FFEE33FEED02
:1002A40033FD0203DAE803F830E705C0F075F00027
:1002B400EF2FFFEE33FEED33FD40B830E7C280AAE6
:1002C40074F8CC6480CCC86480C8F58204604FC3E1
:1002D400EB9FF5F0EA9E42F0E99D42F0E89C45F080
:1002E400603C501DE5825FFFE582D313CB5BCBF40A
:1002F4002B5582FB50280ABA002409B90020088033
:100304001DE5825BFBE582D313CF5FCFF4C3132FCC
:100314005582FF50090EBE00050DBD00010CC3EB54
:100324009FF5F0EA9E42F0E99D42F0E89C45F060BA
:0903340007CC4820E701B3EC22DC
:10033D00ED33EC33600A047003BD8004ECB2E7FCCE
:01034D00228D
:10034E0075F020800E75F010800575F0087D007E2A
:10035E00007F003392D530D503120839EC334010AC
:10036E00EF33FFEE33FEED33FDEC33FCD5F0ED2233
:0E037E00E5F0247EA2D513CC92E7CDCEFF226F
:10038C00EDD2E7CD33EC3392D524814006E4FFFE69
:10039C00FDFC22FCE4CFCECDCC24E0501174FF80C8
:1003AC00EDC3CC13CCCD13CDCE13CECF13CF047065
:0703BC00F030D5DE02083924
:100E6200E51024DDF582E43400F583E005102290DC
:100E720000DA3007039000DDE475F00112089502F4
:100E820006B52000E97F2ED2008018EF540F24907F
:100E9200D43440D4FF30040BEF24BFB41A00500303
:100EA2002461FFE511600215110514E514700205B5
:100EB2001330070E9000DAE475F001120895EF0284
:100EC20006FB0223677403D2078003E4C207F5100E
:100ED2009000DA1208ACE4F511F513F514E511608F
:100EE200077F20120EA580F57512FFC201C200C253
:100EF20002C203C205C206C208120E71FF700D3093
:100F020007057F00120EB6AF14AE1322B4255FC2DE
:100F1200D5C204120E71FF24D0B40A00501A75F023
:100F22000A781130D50508B6FF0106C6A426F620B8
:100F3200D5047002D20380D924CFB41A00EF500432
:100F4200C2E5D2040211A8D20180C6D20080C0D26A
:100F52000280BCD2D580BAD20580B47F20120EA501
:100F62002002077401B5110040F1120E62FF120E49
:100F7200A5020EDFD208D2068095120E62FB120E77
:100F820062FA120E62F94A4B700679A67A127BFF58
:100F920020022EE511602A7E008E827583001206E1
:100FA200CE60060EEE651270F0C2D5EBC0E0EAC06C
:100FB200E0E9C0E0EE121209D0E0F9D0E0FAD0E0A8
:100FC200FB1206B5FF60AAEBC0E0EAC0E0E9C0E0B0
:100FD200120EA5D0E02401F9D0E03400FAD0E0FBF3
:100FE200E5120460DCD512D98087D20280A21211E8
:100FF200EB60F7E51270010412040DA912600DE511
:1010020012600914F512121293EF60F3EA30E7024C
:10101200F404C3995079EAF425120430E701E40498
:10102200F512800D1211EB60C1EA051225121204AD
:101032000DEA900109F030E701E4251204D512040B
:1010420020050114121209E4C0E012129390010962
:10105200E0601320E70714F0120E8D802204F0D016
:10106200E014C0E07F00120E8DE5126007120E84BC
:101072001512800B300503120E84D0E0020EDFD071
:10108200E00480C41211EB609EE5120412040D907C
:101092000109EAF0E512200502600104240412129B
:0110A2000944
:1010A30074FF04C0E0121293120E8DE512200502A4
:1010B3006003120E84D0E0B512E87F45120E9790BC
:1010C3000109E07F2B30E7047F2DF404C0E0120E0A
:1010D300A5D0E075F00A84C0F0120E8ED0E0120E97
:1010E3008E020EDF791080027908C206C2088008DA
:1010F300D2D5790A8004790AC2D5E512047002F5C3
:1011030012E4FAFDFEFF120E62FC7B0820011312AB
:101113000E62FD7B1030000A120E62FE120E62FF99
:101123007B20EC3382D592D55013C3E43000069F65
:10113300FFE49EFEE42001039DFDE49CFCE4CBF868
:10114300C201EC700CCFCECDCCE824F8F870F3805C
:1011530017C3EF33FFEE33FEED33FDEC33FCEB331C
:10116300FB994002FB0FD8E9EB300105F8D0E0C44E
:1011730048B201C0E00AEC4D4E4F78207B0070C2AC
:10118300EAB5120040BCC0E012120BD0F0D0E02050
:101193000104C4C0E0C4B201C0F0120E8ED0F0D579
:1011A300F0EB020EDF1208B50F7C5310E7580F4D1A
:1011B3004C0F494210EB4F10F34410F3490F6243B5
:1011C30010F9551026461086450FF04712C6500FEA
:1011D300512D0F552E0F782B0F59230F762012AF59
:1011E3002A0F114800000F70E512B4FF03751206B1
:1011F300120E62FC120E62FD120E62FE120E62FFEE
:1012030090010202044A790AA2D520031430050989
:10121300B910020404B9080104A2D5200602500142
:10122300042002689202B511005034C0E07F2030E0
:1012330003197F30A20272067205500F121262C2A6
:1012430002C206C205C2087F30800F300503E9C021
:10125300E0120EA5300503D0E0F9D0E0B511CC3093
:1012630005177F30B9100C120EA57F583004077F85
:10127300788003B90803120EA53002057F2D020EF4
:10128300A57F202008F87F2B2006F322920280CF2F
:101293007F00B40700500B2402F582E43401F58388
:1012A300E0FF22286E756C6C2900D201120E6230A9
:1012B30001F8C201781130D50108F6020F112D5043
:1012C300434958120E622403B405004001E490120E
:1012D300C193120E96743A120E96D203751104023C
:0212E30010E712
:1003C300E9D2E7C933E833F892D5EDD2E7CD33EC80
:0703D30033FC5002B2D522F9
:1003DA00EC30E7100FBF000C0EBE00080DBD000484
:1003EA000BEB6014A2D5EB13FCED92E7FD2274FF30
:1003FA00FCFDFEFF22E480F8A2D574FF13FC7D8089
:03040A00E480EF9C
:10040D00F920E73624F950037907E4F42402FBE5DB
:10041D0082158270021583DBF6E024FB501BE96028
:10042D0014E4F0E582158270021583E004F0B40A3D
:0D043D0008E4F0D9EE7401F00A22C2D522C5
:10044A00ED33EC3392D5FA602AB4FF33EDC2E77B81
:10045A00FF60067A04796FE4227A04797820D50459
:10046A007A047973224E614E002B494E46002D497B
:10047A004E4600E47A08F0A3DAFC7B00740722C037
:10048A0083C082ECC0E0EDC0E0EEC0E0EFC0E0EA7D
:10049A0075F010A4CAABF075F04DA42BFBE435F04F
:1004AA00FCEA2410FAEB34C5FBEC34D9FCEDC2E7C4
:1004BA00FF75F056A4F42411C5F0F434C58FF0A4E6
:1004CA002AE5F03BE43CF020E71412057FD0E0FF78
:1004DA00D0E0FED0E0FDD0E0FC1202278014F40444
:1004EA0012057FD0E0FFD0E0FED0E0FDD0E0FC12A4
:1004FA00011ED082D083E0FAEDD2E7CD33EC33246B
:10050A0082FBE4C3CF33CFCE33CECD33CD33DBF34F
:10051A007B0775F00A846004F0A31B0AE5F0F0A3D8
:10052A008FF0740AA4FFACF08EF0740AA42CFEAC0F
:10053A00F050010C8DF0740AA42CFDE435F0F0A300
:05054A00DBDE74072256
:10054F003F8000004120000042C80000447A0000B4
:10055F00461C400047C35000497424004B18968036
:10056F004CBEBC205A0E1BCA6753C21C749DC5AE2D
:10057F00FB60065407601C23231205ADEB54386053
:10058F00091205991205A812011EECF8EDF9EEFA01
:10059F00EFCB22EB1205A880F1543803241C9005F1
:1005AF004FFE93FC0EEE93FD0EEE930ECE93FF22B5
:03000000021EEDF0
:0C1EED00787FE4F6D8FD758121021F34D7
:1005BF00E709F608DFFA8046E709F208DFFA803E1E
:1005CF0088828C83E709F0A3DFFA8032E309F6080B
:1005DF00DFFA8078E309F208DFFA807088828C8373
:1005EF00E309F0A3DFFA806489828A83E0A3F60827
:1005FF00DFFA805889828A83E0A3F208DFFA804C01
:10060F0080D280FA80C680D4806980F280338010D7
:10061F0080A680EA809A80A880DA80E280CA803340
:10062F0089828A83ECFAE493A3C8C582C8CCC583B8
:10063F00CCF0A3C8C582C8CCC583CCDFE9DEE78088
:10064F000D89828A83E493A3F608DFF9ECFAA9F007
:10065F00EDFB2289828A83ECFAE0A3C8C582C8CC5D
:10066F00C583CCF0A3C8C582C8CCC583CCDFEADE76
:10067F00E880DB89828A83E493A3F208DFF980CCD8
:10068F0088F0EF60010E4E60C388F0ED2402B404D1
:10069F000050B9F582EB2402B4040050AF23234578
:0606AF00822390060F7388
:1006B500BB010689828A83E0225002E722BBFE0243
:0906C500E32289828A83E4932276
:1006CE00BB010CE58229F582E5833AF583E02250E1
:1006DE0006E92582F8E622BBFE06E92582F8E2222B
:0D06EE00E58229F582E5833AF583E4932245
:1006FB00BB010689828A83F0225002F722BBFE01DE
:02070B00F322D7
:10070D00EF8DF0A4A8F0CF8CF0A428CE8DF0A42E00
:02071D00FE22BA
:10071F00C2D5EC30E709B2D5E4C39DFDE49CFCEEF5
:10072F0030E715B2D5E4C39FFFE49EFE1208DBC38A
:10073F00E49DFDE49CFC80031208DB30D507C3E485
:06074F009FFFE49EFE2264
:10075500A3F8E0C5F025F0F0E58215827002158357
:06076500E0C838F0E822B4
:10076B0075F008758200EF2FFFEE33FECD33CDCC45
:10077B0033CCC58233C5829BED9AEC99E5829840C8
:10078B000CF582EE9BFEED9AFDEC99FC0FD5F0D6A5
:10079B00E4CEFBE4CDFAE4CCF9A88222B800C1B9CF
:1007AB000059BA002DEC8BF084CFCECDFCE5F0CB0D
:1007BB00F97818EF2FFFEE33FEED33FDEC33FCEB46
:1007CB0033FB10D703994004EB99FB0FD8E5E4F901
:1007DB00FA227818EF2FFFEE33FEED33FDEC33FCEE
:1007EB00C933C910D7059BE99A4007EC9BFCE99AE2
:1007FB00F90FD8E0E4C9FAE4CCFB2275F010EF2F27
:10080B00FFEE33FEED33FDCC33CCC833C810D70726
:10081B009BEC9AE899400AED9BFDEC9AFCE899F861
:0E082B000FD5F0DAE4CDFBE4CCFAE4C8F922F4
:0E083900C3E49FFFE49EFEE49DFDE49CFC22D0
:10084700EB9FF5F0EA9E42F0E99D42F0E89C45F007
:01085700227E
:0C085800ECF0A3EDF0A3EEF0A3EFF02213
:10086400A8828583F0D083D08212087B12087B1281
:10087400087B12087BE473E493A3C583C5F0C583A6
:10088400C8C582C8F0A3C583C5F0C583C8C582C8DE
:010894002241
:10089500F8E0FBA3A3E0F925F0F0E58215827002EC
:0708A5001583E0FA38F02290
:0908AC00EBF0A3EAF0A3E9F0224D
:1008B500D083D082F8E4937012740193700DA3A3D2
:1008C50093F8740193F5828883E4737402936860E6
:0608D500EFA3A3A380DFE6
:101EF90002172DE493A3F8E493A34003F68001F2BB
:101F090008DFF48029E493A3F85407240CC8C333E9
:101F1900C4540F4420C8834004F456800146F6DFB8
:101F2900E4800B0102040810204080902109E47E1E
:101F3900019360BCA3FF543F30E509541FFEE493AD
:101F4900A360010ECF54C025E060A840B8E493A374
:101F5900FAE493A3F8E493A3C8C582C8CAC583CA9F
:101F6900F0A3C8C582C8CAC583CADFE9DEE780BE57
:012157000087
:1008DB00BC000BBE0029EF8DF084FFADF022E4CC01
:1008EB00F875F008EF2FFFEE33FEEC33FCEE9DECCA
:1008FB00984005FCEE9DFE0FD5F0E9E4CEFD22ED10
:10090B00F8F5F0EE8420D21CFEADF075F008EF2F59
:10091B00FFED33FD4007985006D5F0F222C398FD4A
:05092B000FD5F0EA22E7
:00000001FF
