:1012E500496E697420436F6D706C657465210D0AD4
:1012F5000048756D20537769746368210D0A0D0ADE
:10130500005374617475733A004D696E3A004D610E
:10131500783A0048756D204F6E0048756D204F6610
:1013250066006E6565645F68756D3A25750D0A68BA
:10133500756D5F6F6E3A25750D0A0D0A002743001E
:1013450025005374617475733A25750D0A54656DDE
:1013550070657261747572653A25750D0A48756D0B
:1013650069646974793A25750D0A25753C48756D6A
:101375003C25750D0A0D0A00696E630D0A0064654A
:10138500630D0A000000000000000000005F00007F
:1013950000000700070000147F147F1400242A7F33
:1013A5002A120023130864620036495522500000B2
:1013B5000503000000001C224100000041221C0022
:1013C5000014083E08140008083E080800005030C4
:1013D5000000000808080808000060600000002000
:1013E50010080402003E5149453E0000427F40007E
:1013F500004261514946002141454B310018141204
:101405007F10002745454539003C4A4949300001D0
:101415007109050300364949493600064949291E1F
:101425000000363600000000563600000008142281
:101435004100001414141414000041221408000281
:101445000151090600324979413E007E1111117E94
:10145500007F49494936003E41414122007F4141D3
:10146500221C007F49494941007F09090901003EC5
:101475004149497A007F0808087F0000417F410003
:10148500002040413F01007F08142241007F404079
:101495004040007F020C027F007F0408107F003E61
:1014A5004141413E007F09090906003E4151215E47
:1014B500007F091929460046494949310001017F44
:1014C5000101003F4040403F001F2040201F003FDA
:1014D5004038403F0063140814630007087008078C
:1014E50000615149454300007F4141000002040865
:1014F5001020000041417F00000402010204004069
:10150500404040400000010204000020545454783B
:10151500007F48444438003844444420003844445B
:10152500487F00385454541800087E090102000C05
:101535005252523E007F080404780000447D40006A
:10154500002040443D00007F102844000000417FFA
:101555004000007C04180478007C080404780038F6
:1015650044444438007C1414140800081414187CEE
:10157500007C0804040800485454542000043F44E7
:101585004020003C4040207C001C2040201C003CAA
:101595004030403C004428102844000C5050503C3A
:1015A500004464544C440000083641000000007FAC
:1015B50000000000413608000010080810080078F7
:1015C500464146780008082A1C0800081C2A080815
:1015D5000004027F02040010207F20100015167CF5
:1015E500161500033B4444440003037C14140044D3
:1015F500281028440008082A080800384448302CD8
:1016050000F854545428002854544420003E4909F5
:1016150009060038444C542400403F08081F001FA9
:1016250008083F40003C4A4A4A3C00586404645854
:1016350000443C047C44003028102818003028243D
:10164500283000081C08080E0000F000000000FF0C
:1016550000000000F000000000003F202020203F97
:10166500202020207F0000000008884828180FE867
:101675000808080808080000002011090541817FB5
:10168500010105091120000020202020202020FF35
:10169500202020202020200080804020100C0300E6
:1016A500030C102040808000403011969090919658
:1016B5009090981413503000040404040444847E6C
:1016C5000605040404040400104C444444C475464F
:1016D5004444444444540C004020100846E1504C16
:1016E50043405060C0000000000000007F494949A8
:1016F50049497F000000000000FF49494949FF00B2
:10170500FF49494949FF00001010D0FF50900404DB
:1017150084E41C8404040400040300FF00040201A3
:0817250000FF000001060000B6
:10208E0041011E014101252C410127304401200050
:07209E00000000C10DC10E9E
:10172D004392045391FB43948053937FD288D2A864
:10173D001223651220DD1223CC7BFF7A16794DE43E
:10174D009000DEF0A37404F07D0A121E957BFF7AE3
:10175D001679CD9000DE7402F0A304F07D14121EF4
:10176D00957FD07E071223381222CA7BFF7A127919
:10177D00E5021999D287A20D300E01B35016C2871A
:10178D007F647E00122338D287B20D7BFF7A1279E7
:10179D00F6120ECD7BFF7A137906E49000DEF0FD94
:1017AD0012230790011EE0FCE41202609000DC128F
:1017BD000858E49000E0F07D07FF121A557BFF7A80
:1017CD0013790E9000DE7403F0E4FD1223079001EF
:1017DD0025E0FCE41202609000DC120858E4900051
:1017ED00E0F07D047F03121A557BFF7A1379139075
:1017FD0000DE7403F07D07122307900127E0FCE45F
:10180D001202609000DC120858E49000E0F07D0BAD
:10181D007F03121A5590011EE024FE700302199FDA
:10182D001470030219FA24026003021781D2927F09
:10183D00587E02122338C2927F587E02122338122C
:10184D001D7C78D67C007D017E007F0412068F9072
:10185D0000D6E0900126F09000D8E0900128F0121B
:10186D001F20900120120858900125E0FF900128BB
:10187D00E0FEC39F5002D20E900127E0FFEED39FF2
:10188D004002C20E7B0DE4FD7F05122171300D0863
:10189D007BFF7A1379188009200D117BFF7A13795C
:1018AD001F9000DE7405F0E4FD1223077BFF7A1311
:1018BD007927A20EE4FF339000DDCFF0A3EFF0A265
:1018CD000DE4FF33A3CFF0A3EFF0120ECD90012660
:1018DD00E0FCE41202609000DC120858E49000E095
:1018ED00F0FD7F01121A557BFF7A1379429000DECD
:1018FD007401F07D02122307900128E0FCE412022E
:10190D00609000DC120858E49000E0F07D077F0144
:10191D00121A557BFF7A1379459000DE7401F07D24
:10192D0009122307900120E0FCA3E0FDA3E0FEA334
:10193D00E0FF9000DC1208589000E07403F0E4FD25
:10194D007F04121A557BFF7A13794790011EE0FF31
:10195D009000DDE4F0A3EFF09000D6E0FF9000DF03
:10196D00E4F0A3EFF09000D8E0FF9000E1E4F0A3E5
:10197D00EFF0900125E0FF9000E3E4F0A3EFF0908D
:10198D000127E0FF9000E5E4F0A3EFF0120ECD0289
:10199D001781C295C2943095247F147E001223388E
:1019AD0020951A7BFF7A13797D120ECD900127E0D9
:1019BD00FF900125E004F0C39F4002EFF020940357
:1019CD000217817F147E0012233830940302178191
:1019DD007BFF7A137983120ECD900125E014F0D39D
:1019ED00940A4003021781740AF0021781C295C24E
:1019FD00943095217F147E001223382095177BFF9C
:101A0D007A13797D120ECD900127E004F0C3945026
:101A1D0040037450F02094030217817F147E00124E
:101A2D0023383094030217817BFF7A137983120ECA
:101A3D00CD900125E0FF900127E014F0D39F4003E6
:081A4D00021781EFF00217817E
:0300230002232095
:05232000C0D075D008DB
:10232500309806C298AF998F99309904C299C20A1C
:03233500D0D032D3
:0300030002203F99
:10203F00C0E0C0F0C083C082C0D075D000C000C067
:10204F0001C002C003C004C005C006C0077F147ED4
:10205F000012233820B20D90011EE004F0E0B4040A
:10206F00037401F0D007D006D005D004D003D002FE
:0F207F00D001D000D0D0D082D083D0F0D0E032CA
:10239D00EF1FAC0670011E4C600500000080F1229D
:10233800EF1FAC0670011E4C600D0000007D0B7C89
:07234800BEDCFEDDFC80E9B4
:01234F00226B
:10235000EF1FAC0670011E4C600A7D6C7C91DCFEA8
:04236000DDFC80EC34
:012364002256
:0523EA00007F19DFFE79
:0123EF0022CB
:0E23BD0000007F017ED87D23DDFEDEFCDFFA0E
:0123CB0022EF
:0E23CC00538EBF53890F438910C28FC28E22D9
:101F20009000DA12086400000000D2851223EA1241
:101F300023EAC2853086FDD28E2086FDC28EAF8D0B
:101F4000EFFEAD8B7C00E42DFDEC3EFCE412025B69
:101F50007B9A7A9979B77843120026E4FBFAF978EC
:101F60004012012F7B007A40791C784612012F9095
:101F700000DA120858E4F58DF58B9000DAE0FCA346
:081F8000E0FDA3E0FEA3E0FF79
:011F88002236
:1020A500410002014100CF01C1094200690000421F
:1020B50000D000004200D20000C10B4200D4000055
:0A20C500420000000042000300008A
:1023650075985075D7E075D6FE758E14438E01D2DB
:04237500ACD2AF2215
:10237900759A1075D7E075D6FE438E1443AF01D216
:02238900AF2281
:0823DA00200AFDD20A8F9922AE
:0823E200200CFDD20C8F9B22A0
:1022EC00AE07900002E0B401031223DA900002E082
:0B22FC00B40205AF061223E2AF062279
:101CE2009000CFE064017048900069E07002A3E0C8
:101CF20060F6C2AC9000D0E0FEA3E0FF2405F582BE
:101D020074003EF583E0FBEF2401FFE43EFE7C001D
:101D12007D6412071F9000D0ECF0A3EDF090006AF2
:101D2200E024FFF0900069E034FFF0D2ACAF032270
:101D32009000D4E07002A3E060F653AFFE90000082
:101D4200E0FEA3E0FF246BF58274003EF583E0FB26
:101D5200EF2401FFE43EFE7C007D6412071F900029
:101D620000ECF0A3EDF09000D5E024FFF09000D459
:091D7200E034FFF043AF01AF03C0
:011D7B002245
:1021AC00900129EBF0A3EAF0A3E9F0900129E0FB00
:1021BC00A3E0FAA3E0F91206B56017900129A3E495
:1021CC0075F001120755A9F0FA1206B5FF1223DAC1
:0321DC0080D92285
:1021DF0090012CEBF0A3EAF0A3E9F090012CE0FBC7
:1021EF00A3E0FAA3E0F91206B5601790012CA3E45F
:1021FF0075F001120755A9F0FA1206B5FF1223E286
:03220F0080D92251
:0423F00000000000E9
:1023AD00C2931223BDD2931223EA1223EA0223EA27
:101FEF00E49000E7F09000E6F09000E7E0FF25E0D6
:101FFF00F03093FD1223EA1223EA1223EA1223EAA6
:10200F001223EA9000E7E03093114401F01223EA23
:10201F001223EA1223EA1223EA800354FEF09000FF
:0F202F00E6E004F0E0C3940840BF9000E7E0FF54
:01203E00227F
:101D7C0078E17C007D017BFF7A2379F07E007F0483
:101D8C0012068F1223ADD2932093FD2093683093CB
:101D9C00FD2093FD121FEF9000DDEFF0121FEF906E
:101DAC0000DEEFF0121FEF9000DBEFF0121FEF9050
:101DBC0000DCEFF0121FEF9000DAEFF0D2939000FE
:101DCC00DCE0FBFF9000DBE0FA2FFFE433FE900039
:101DDC00DDE0F97C002FFFEC3EFEA3E02FFFEC3E94
:101DEC00A3F0A3EFF0A3EAF0A3EBF0A3E9F09000CB
:0C1DFC00DEE09000E4F07B017A0079E169
:011E080022B7
:100930000000000000000000005F00000000070051
:10094000070000147F147F1400242A7F2A1200233A
:100950001308646200364955225000000503000068
:1009600000001C224100000041221C000014083E2F
:1009700008140008083E0808000050300000000875
:100980000808080800006060000000201008040249
:10099000003E5149453E0000427F40000042615107
:1009A0004946002141454B31001814127F100027A1
:1009B00045454539003C4A49493000017109050364
:1009C00000364949493600064949291E0000363695
:1009D00000000000563600000008142241000014F8
:1009E00014141414000041221408000201510906D5
:1009F00000324979413E007E1111117E007F494944
:100A00004936003E41414122007F4141221C007F86
:100A100049494941007F09090901003E4149497A94
:100A2000007F0808087F0000417F4100002040410E
:100A30003F01007F08142241007F40404040007F7A
:100A4000020C027F007F0408107F003E4141413EBE
:100A5000007F09090906003E4151215E007F091906
:100A600029460046494949310001017F0101003F03
:100A70004040403F001F2040201F003F4038403F83
:100A800000631408146300070870080700615149E7
:100A9000454300007F41410000020408102000008F
:100AA00041417F00000402010204004040404040F8
:100AB000000001020400002054545478007F484490
:100AC000443800384444442000384444487F0038C7
:100AD0005454541800087E090102000C5252523E30
:100AE000007F080404780000447D4000002040445A
:100AF0003D00007F102844000000417F4000007C42
:100B000004180478007C080404780038444444380D
:100B1000007C1414140800081414187C007C0804C9
:100B2000040800485454542000043F444020003C32
:100B30004040207C001C2040201C003C4030403CB9
:100B4000004428102844000C5050503C0044645489
:100B50004C440000083641000000007F0000000007
:100B60004136080000100808100800784641467811
:100B70000008082A1C0800081C2A08080004027F34
:100B800002040010207F20100015167C16150003AB
:100B90003B4444440003037C1414004428102844BC
:100BA0000008082A080800384448302C00F854543B
:100BB0005428002854544420003E490909060038AE
:100BC000444C542400403F08081F001F08083F40C1
:100BD000003C4A4A4A3C00586404645800443C04BF
:100BE0007C440030281028180030282428300008C1
:100BF0001C08080E0000F000000000FF00000000CC
:100C0000F000000000003F202020203F2020202076
:100C10007F0000000008884828180FE80808080826
:100C200008080000002011090541817F0101050924
:100C30001120000020202020202020FF2020202024
:100C40002020200080804020100C0300030C102086
:100C5000408080004030119690909196909098142A
:100C600013503000040404040444847E0605040484
:100C700004040400104C444444C4754644444444B1
:100C800044540C004020100846E1504C4340506052
:100C9000C0000000000000007F49494949497F0029
:100CA0000000000000FF49494949FF00FF49494948
:100CB00049FF00001010D0FF5090040484E41C840D
:100CC00004040400040300FF0004020100FF00000C
:100CD00001060000003E5149453E0000427F4000B1
:100CE000004261514946002141454B310018141220
:100CF0007F10002745454539003C4A4949300001ED
:100D00007109050300364949493600064949291E3B
:100D1000000060600000000808080808FFFFFFFFEF
:100D2000FFFF0484E45C44C42010E82724E4342C4E
:100D3000E00002017F10103F80601F09093F4989D0
:100D40007F00100C4444444445C644444444441485
:100D50000C008040201E2040407F444444444440D6
:100D60004000040444C44F4444C424242FB4240445
:100D7000040040442424150C04FE040C15242444CF
:100D800040000000F8494A4C48F8484C4A49F800ED
:100D9000000010101312121212FF1212121213106E
:100DA0001000404042CC0040404040FF40404040A6
:100DB00040000000007F2010000000FF0000000045
:100DC00000004040407C404040FF44444444444094
:100DD0004000809088464040202F101008040200F8
:100DE0000000000000000000FF4040404040400084
:100DF00000004040404040407F4040404040404034
:100E00004000008060F807404848E85F4848484094
:100E10004000010000FF0000020B1222D20A06006F
:100E200000001060028C00445454547F54545444C5
:100E3000400004047E010000FF15151555957F0044
:100E40000000100C05555555857F855555550514E1
:100E50000C000404020A09292A4C48A919020204B8
:020E600004008C
:0D20CF004A010A0001020304050607080982
:1021280075F020EBA42CF582E435F0F583E58224E4
:0E21380022F582E583340DF583E493FF7D01EB
:10214600E4FEC281ED7004C2828002D282EEC394A4
:10215600085015EF30E704D2838002C283C284EFB1
:0A21660025E0FFD2840E80E5D2814F
:01217000224C
:1022CA00E4FCFBFD7F0C1221467F80122146E4FBD1
:1022DA007D01E4FF1221460BEBB454F40CECB40676
:0122EA00ED06
:0122EB0022D0
:1020DD00C2807F017E00122338D280C2817F017EB3
:1020ED0000122338D2817F017E00122338E4FD7F58
:1020FD00211221467FB81221467F061221467F13F9
:10210D001221467F201221461222CAE4FD7F0C12B5
:0B211D002146C2817FC87E00022338EB
:10238B00AC07ED4440FFE4FD122146EC4480FF0214
:02239B002146D9
:06221200FF9000DAE0FD80
:10221800E4FCEF75F006A4FF12238BE4FC75F006CE
:10222800EBA42CF582E435F0F583E58224D4F5821D
:0C223800E583340C12213F0CECB406E1ED
:012244002277
:0222A600AC0783
:1022A800E4FB75F006ECA42470F582E5F03408F53B
:1022B80083E5822BF582E4358312213F0BEBB406CC
:0122C800E134
:0122C90022F2
:10000600AA07EDD3940D4002E4FDED75F006A4FFBA
:0C001600AE03AD0612238BAF020222A63F
:102245009000DFEBF0A3EAF0A3E9F09000DFE0FBFC
:10225500A3E0FAA3E0F91206B560179000DFA3E446
:1022650075F001120755A9F0FA1206B5FF1222A65C
:0322750080D922EB
:10230700EDD3940D4002E4FDED75F006A4FF9000B7
:09231700DEE0FD12238B022245D9
:04227800A907AA0503
:10227C00E4FCE9C454F0FF12238BE4FC1221280C7B
:10228C00ECB410F8E9C454F0FFEA04FD12238B7C83
:09229C00101221280CECB420F80A
:0122A5002216
:06217100AA05A903AE0758
:10217700EA75F006A4FFAD0612238BE4FBEAFFE93C
:10218700C39FFFE49400FE7C007D0612070DEBC39E
:102197009FEE6480F8748098500A7D01E4FF122155
:0421A700460B80D98A
:0121AB002211
:081A55009000DAEFF0A3EDF0C0
:101A5D00E49000F7F09000FAF0A3F09000DCE0FCC9
:101A6D00A3E0FDA3E0FEA3E0FF9000FC120858E404
:101A7D00FFFEFDFC9000FCE0F8A3E0F9A3E0FAA363
:101A8D00E0FB1201CC501E9000FCE0FCA3E0FDA396
:101A9D00E0FEA3E0FF1202459000FC120858E4900E
:101AAD0000FBF080069000FB7401F09000E0E01464
:101ABD00601414601C1460242403702A9000F5E453
:101ACD00F0A304F080209000F5E4F0A3740AF080F8
:101ADD00159000F5E4F0A37464F0800A9000F5749D
:101AED0003F0A374E8F09000F5E0FCA3E0FDE41230
:101AFD00025B9000FCE0F8A3E0F9A3E0FAA3E0FBA1
:101B0D001200261202948038E47B0AFAF9F890014B
:101B1D0000E0FCA3E0FDA3E0FEA3E0FF1207A79009
:101B2D0000F7E004F0EF4E601F900100E0FCA3E031
:101B3D00FDA3E0FEA3E0FFE47B0AFAF9F81207A784
:101B4D0090010012085880C09000F5E0FCA3E0FD64
:101B5D00E412025B9000FCE0F8A3E0F9A3E0FAA325
:101B6D00E0FB120026120294900100120858E47F47
:101B7D00E87E03FDFC900100E0F8A3E0F9A3E0FA94
:101B8D00A3E0FBC3120847500C9000E0E060069004
:101B9D0000F77404F09000F7E0A3F09000F7E06018
:101BAD0052E47B0AFAF9F8900100E0FCA3E0FDA3F2
:101BBD00E0FEA3E0FF1207A7AF039000F7E025E0DA
:101BCD0024DFF582E43400F583EAF0A3EFF0900111
:101BDD0000E0FCA3E0FDA3E0FEA3E0FFE47B0AFA36
:101BED00F9F81207A79001001208589000F7E014B9
:101BFD00F080A89000F5E0FCA3E0FDE412025B90FC
:101C0D0000FCE0F8A3E0F9A3E0FAA3E0FB12002644
:101C1D001202949001001208589000FBE0700A9097
:101C2D0000DBE0147B0B122212E4FFFEFDFC9001A1
:101C3D0000E0F8A3E0F9A3E0FAA3E0FBC312084724
:101C4D00606D9000F8E0FF9000F7E06F7003021CEC
:101C5D00E19000FAE09000F97003F080037401F058
:101C6D009000F7E0FF25E024E1F582E43400F583F0
:101C7D00A3E0FB9000DBE02FFF9000F9E02F122294
:101C8D00129000F7E004F09000E0E0FF60B49000E7
:101C9D00F8E0C39FFF9000F7E0FEB507A59000FAAE
:101CAD007401F09000DBE02E7B0A122212809390DB
:101CBD0000DAE0FFA3E0FD9000F7E0FEED2EFB1251
:101CCD002171E0FF9000DBE02FFF9000DAE0FDE4F2
:041CDD00FB122218BC
:011CE10022E0
:0F1F89009000E2EBF0A3EAF0A3E9F0A3EDF0FF84
:101F9800A3E025E0FD12238BE4FC9000E2E0FBA324
:101FA800E0FAA3E0F98C827583001206CEFF7D016A
:101FB8001221460CECB410E29000E5E0FFA3E02506
:101FC800E004FD12238B7C109000E2E0FBA3E0FA12
:101FD800A3E0F98C827583001206CEFF7D011221E1
:061FE800460CECB420E2FF
:011FEE0022D0
:0E1E95009000DAEBF0A3EAF0A3E9F0A3EDF081
:101EA300E49000E1F09000E0F09000DFE0FFA3E0B9
:101EB300FEC39F5067EE75F010A4FF9000DDE07C39
:101EC300002FFFEC35F0FED3EF943AEE648094805C
:101ED300400CE4F09000E1F09000DEE004F09000AC
:101EE300E0E075F020A4FF9000DAE0FBA3E0FAA3A2
:101EF300E02FF9EA35F0FA9000E1E0C454F0FF90E6
:101F030000DDE02FFDA3E09000E6F0121F899000B2
:0C1F1300E1E004F09000E0E004F0808DBC
:011F1F00229F
:10002600EC4D6011E8497017ED33EC3304600DE4D4
:10003600FCFFFEFD22E933E8330470F802030012E8
:1000460002CB58046009E4CC2481500628500902EA
:10005600030A284003020307C0E0EB4A7044B98054
:1000660006D0E0FB0202F6EF4E701CBD8008EBFFE7
:10007600EAFEE9FD80EBE98DF0A4FEE5F002010F52
:10008600E9CDF9EAFEEBFFEF89F0A4FCE5F0CE89B5
:10009600F0A42EFFE435F0CD89F0A42DFEE435F072
:1000A6008067EF4E7005BD80D780C3EF8BF0A4ACA0
:1000B600F0EE8BF0A42CFCE435F0F8EF8AF0A42CDB
:1000C600E5F038FCE433CB8DF0A42CFCE5F03BF8EE
:1000D600EE8AF0A42CFCE5F038F8E433CF89F0A4DE
:1000E6002CFCE5F038CF3400CE89F0A42FFFE5F0E4
:1000F6003EFEE433C98DF0A42EFEE5F039CD8AF03C
:10010600A42FFFE5F03EFEE43DFD33D0E0FB5007B3
:100116000BBB000F02030AEC2CFCEF33FFEE33FEA1
:06012600ED33FD0202E2D0
:10012C0002030AEC5D046005E85904700302030045
:10013C001202CB580460F6EC4860F2EC7004FDFE41
:10014C00FF22C860DB2481C85009C39860025006A6
:10015C000203079850CAF582E9294B4A7005AB8215
:10016C000202F675F0007C1A7880C3EF9BEE9AEDD4
:10017C0099400DC3EF9BFFEE9AFEED99FDE842F01E
:10018C00DC23ACF0D0E0FFD0E0FED0E0FDAB822071
:10019C00E7101BEB60BAEC2CFCEF33FFEE33FEEDFB
:1001AC0033FD0202E2E803F830E705C0F075F00019
:1001BC00EF2FFFEE33FEED33FD40B830E7C280AADF
:1001CC0074F8CC6480CCC86480C8F58204604FC3DA
:1001DC00EB9FF5F0EA9E42F0E99D42F0E89C45F079
:1001EC00603C501DE5825FFFE582D313CB5BCBF403
:1001FC002B5582FB50280ABA002409B9002008802C
:10020C001DE5825BFBE582D313CF5FCFF4C3132FC5
:10021C005582FF50090EBE00050DBD00010CC3EB4D
:10022C009FF5F0EA9E42F0E99D42F0E89C45F060B3
:09023C0007CC4820E701B3EC22D5
:10024500ED33EC33600A047003BD8004ECB2E7FCC7
:010255002286
:1002560075F020800E75F010800575F0087D007E23
:10026600007F003392D530D503120839EC334010A5
:10027600EF33FFEE33FEED33FDEC33FCD5F0ED222C
:0E028600E5F0247EA2D513CC92E7CDCEFF2268
:10029400EDD2E7CD33EC3392D524814006E4FFFE62
:1002A400FDFC22FCE4CFCECDCC24E0501174FF80C1
:1002B400EDC3CC13CCCD13CDCE13CECF13CF04705E
:0702C400F030D5DE0208391D
:100E6200E51024DDF582E43400F583E005102290DC
:100E720000DA3007039000DDE475F00112089502F4
:100E820006B52000E97F2ED2008018EF540F24907F
:100E9200D43440D4FF30040BEF24BFB41A00500303
:100EA2002461FFE511600215110514E514700205B5
:100EB2001330070E9000DAE475F001120895EF0284
:100EC20006FB0222EC7403D2078003E4C207F5108A
:100ED2009000DA1208ACE4F511F513F514E511608F
:100EE200077F20120EA580F57512FFC201C200C253
:100EF20002C203C205C206C208120E71FF700D3093
:100F020007057F00120EB6AF14AE1322B4255FC2DE
:100F1200D5C204120E71FF24D0B40A00501A75F023
:100F22000A781130D50508B6FF0106C6A426F620B8
:100F3200D5047002D20380D924CFB41A00EF500432
:100F4200C2E5D2040211A8D20180C6D20080C0D26A
:100F52000280BCD2D580BAD20580B47F20120EA501
:100F62002002077401B5110040F1120E62FF120E49
:100F7200A5020EDFD208D2068095120E62FB120E77
:100F820062FA120E62F94A4B700679A67A127BFF58
:100F920020022EE511602A7E008E827583001206E1
:100FA200CE60060EEE651270F0C2D5EBC0E0EAC06C
:100FB200E0E9C0E0EE121209D0E0F9D0E0FAD0E0A8
:100FC200FB1206B5FF60AAEBC0E0EAC0E0E9C0E0B0
:100FD200120EA5D0E02401F9D0E03400FAD0E0FBF3
:100FE200E5120460DCD512D98087D20280A21211E8
:100FF200EB60F7E512700104120315A912600DE50A
:1010020012600914F512121293EF60F3EA30E7024C
:10101200F404C3995079EAF425120430E701E40498
:10102200F512800D1211EB60C1EA051225121203AE
:1010320015EA900109F030E701E4251204D5120403
:1010420020050114121209E4C0E012129390010962
:10105200E0601320E70714F0120E8D802204F0D016
:10106200E014C0E07F00120E8DE5126007120E84BC
:101072001512800B300503120E84D0E0020EDFD071
:10108200E00480C41211EB609EE512041203159075
:101092000109EAF0E512200502600104240412129B
:0110A2000944
:1010A30074FF04C0E0121293120E8DE512200502A4
:1010B3006003120E84D0E0B512E87F45120E9790BC
:1010C3000109E07F2B30E7047F2DF404C0E0120E0A
:1010D300A5D0E075F00A84C0F0120E8ED0E0120E97
:1010E3008E020EDF791080027908C206C2088008DA
:1010F300D2D5790A8004790AC2D5E512047002F5C3
:1011030012E4FAFDFEFF120E62FC7B0820011312AB
:101113000E62FD7B1030000A120E62FE120E62FF99
:101123007B20EC3382D592D55013C3E43000069F65
:10113300FFE49EFEE42001039DFDE49CFCE4CBF868
:10114300C201EC700CCFCECDCCE824F8F870F3805C
:1011530017C3EF33FFEE33FEED33FDEC33FCEB331C
:10116300FB994002FB0FD8E9EB300105F8D0E0C44E
:1011730048B201C0E00AEC4D4E4F78207B0070C2AC
:10118300EAB5120040BCC0E012120BD0F0D0E02050
:101193000104C4C0E0C4B201C0F0120E8ED0F0D579
:1011A300F0EB020EDF1208B50F7C5310E7580F4D1A
:1011B3004C0F494210EB4F10F34410F3490F6243B5
:1011C30010F9551026461086450FF04712C6500FEA
:1011D300512D0F552E0F782B0F59230F762012AF59
:1011E3002A0F114800000F70E512B4FF03751206B1
:1011F300120E62FC120E62FD120E62FE120E62FFEE
:10120300900102020352790AA2D520031430050982
:10121300B910020404B9080104A2D5200602500142
:10122300042002689202B511005034C0E07F2030E0
:1012330003197F30A20272067205500F121262C2A6
:1012430002C206C205C2087F30800F300503E9C021
:10125300E0120EA5300503D0E0F9D0E0B511CC3093
:1012630005177F30B9100C120EA57F583004077F85
:10127300788003B90803120EA53002057F2D020EF4
:10128300A57F202008F87F2B2006F322920280CF2F
:101293007F00B40700500B2402F582E43401F58388
:1012A300E0FF22286E756C6C2900D201120E6230A9
:1012B30001F8C201781130D50108F6020F112D5043
:1012C300434958120E622403B405004001E490120E
:1012D300C193120E96743A120E96D203751104023C
:0212E30010E712
:1002CB00E9D2E7C933E833F892D5EDD2E7CD33EC79
:0702DB0033FC5002B2D522F2
:1002E200EC30E7100FBF000C0EBE00080DBD00047D
:1002F2000BEB6014A2D5EB13FCED92E7FD2274FF29
:10030200FCFDFEFF22E480F8A2D574FF13FC7D8081
:03031200E480EF95
:10031500F920E73624F950037907E4F42402FBE5D4
:1003250082158270021583DBF6E024FB501BE96021
:1003350014E4F0E582158270021583E004F0B40A36
:0D03450008E4F0D9EE7401F00A22C2D522BE
:10035200ED33EC3392D5FA602AB4FF33EDC2E77B7A
:10036200FF60067A037977E4227A03798020D50444
:100372007A03797B224E614E002B494E46002D496D
:100382004E4600E47A08F0A3DAFC7B00740722C030
:1003920083C082ECC0E0EDC0E0EEC0E0EFC0E0EA76
:1003A20075F010A4CAABF075F04DA42BFBE435F048
:1003B200FCEA2410FAEB34C5FBEC34D9FCEDC2E7BD
:1003C200FF75F056A4F42411C5F0F434C58FF0A4DF
:1003D2002AE5F03BE43CF020E71412057FD0E0FF71
:1003E200D0E0FED0E0FDD0E0FC12012F8014F40436
:1003F20012057FD0E0FFD0E0FED0E0FDD0E0FC129D
:100402000026D082D083E0FAEDD2E7CD33EC33245C
:1004120082FBE4C3CF33CFCE33CECD33CD33DBF348
:100422007B0775F00A846004F0A31B0AE5F0F0A3D1
:100432008FF0740AA4FFACF08EF0740AA42CFEAC08
:10044200F050010C8DF0740AA42CFDE435F0F0A3F9
:05045200DBDE7407224F
:10045700020300E86480F8E933E83360110460F0D0
:10046700ED33EC337009E8FCE9FDEAFEEBFF22040B
:1004770060DED3EB9FEA9EE99DE8C2E78CF0C2F706
:1004870095F0400CE8CCF8E9CDF9EACEFAEBCFFBD2
:100497001202CB85D0F05804700320D5B3E804705E
:1004A700075002B2D502030A92D5EC0460F7E4CCF8
:1004B700C0E0C398F8603B94186008400DD0E0FB9B
:1004C7000202E2E4FBFAC9FC8028E830E406E4C94A
:1004D700FBE4CAFCE830E305E4C9CACBFCE85407EF
:1004E7006010F8C3E913F9EA13FAEB13FBEC13FCFA
:1004F700D8F130F52FC3E49CFCEF9BFFEE9AFEED9D
:1005070099FDD0E0FBEF4E4D4C701222DB03020346
:1005170007EC2CFCEF33FFEE33FEED33FDED30E758
:10052700EB0202E2EF2BFFEE3AFEED39FDD0E0FBE6
:1005370050130BBB000302030AED13FDEE13FEEF8E
:0805470013FFEC13FC0202E2B9
:10054F003F8000004120000042C80000447A0000B4
:10055F00461C400047C35000497424004B18968036
:10056F004CBEBC205A0E1BCA6753C21C749DC5AE2D
:10057F00FB60065407601C23231205ADEB54386053
:10058F00091205991205A8120026ECF8EDF9EEFAFA
:10059F00EFCB22EB1205A880F1543803241C9005F1
:1005AF004FFE93FC0EEE93FD0EEE930ECE93FF22B5
:03000000021E09D4
:0C1E0900787FE4F6D8FD758121021E50A0
:1005BF00E709F608DFFA8046E709F208DFFA803E1E
:1005CF0088828C83E709F0A3DFFA8032E309F6080B
:1005DF00DFFA8078E309F208DFFA807088828C8373
:1005EF00E309F0A3DFFA806489828A83E0A3F60827
:1005FF00DFFA805889828A83E0A3F208DFFA804C01
:10060F0080D280FA80C680D4806980F280338010D7
:10061F0080A680EA809A80A880DA80E280CA803340
:10062F0089828A83ECFAE493A3C8C582C8CCC583B8
:10063F00CCF0A3C8C582C8CCC583CCDFE9DEE78088
:10064F000D89828A83E493A3F608DFF9ECFAA9F007
:10065F00EDFB2289828A83ECFAE0A3C8C582C8CC5D
:10066F00C583CCF0A3C8C582C8CCC583CCDFEADE76
:10067F00E880DB89828A83E493A3F208DFF980CCD8
:10068F0088F0EF60010E4E60C388F0ED2402B404D1
:10069F000050B9F582EB2402B4040050AF23234578
:0606AF00822390060F7388
:1006B500BB010689828A83E0225002E722BBFE0243
:0906C500E32289828A83E4932276
:1006CE00BB010CE58229F582E5833AF583E02250E1
:1006DE0006E92582F8E622BBFE06E92582F8E2222B
:0D06EE00E58229F582E5833AF583E4932245
:1006FB00BB010689828A83F0225002F722BBFE01DE
:02070B00F322D7
:10070D00EF8DF0A4A8F0CF8CF0A428CE8DF0A42E00
:02071D00FE22BA
:10071F00C2D5EC30E709B2D5E4C39DFDE49CFCEEF5
:10072F0030E715B2D5E4C39FFFE49EFE1208DBC38A
:10073F00E49DFDE49CFC80031208DB30D507C3E485
:06074F009FFFE49EFE2264
:10075500A3F8E0C5F025F0F0E58215827002158357
:06076500E0C838F0E822B4
:10076B0075F008758200EF2FFFEE33FECD33CDCC45
:10077B0033CCC58233C5829BED9AEC99E5829840C8
:10078B000CF582EE9BFEED9AFDEC99FC0FD5F0D6A5
:10079B00E4CEFBE4CDFAE4CCF9A88222B800C1B9CF
:1007AB000059BA002DEC8BF084CFCECDFCE5F0CB0D
:1007BB00F97818EF2FFFEE33FEED33FDEC33FCEB46
:1007CB0033FB10D703994004EB99FB0FD8E5E4F901
:1007DB00FA227818EF2FFFEE33FEED33FDEC33FCEE
:1007EB00C933C910D7059BE99A4007EC9BFCE99AE2
:1007FB00F90FD8E0E4C9FAE4CCFB2275F010EF2F27
:10080B00FFEE33FEED33FDCC33CCC833C810D70726
:10081B009BEC9AE899400AED9BFDEC9AFCE899F861
:0E082B000FD5F0DAE4CDFBE4CCFAE4C8F922F4
:0E083900C3E49FFFE49EFEE49DFDE49CFC22D0
:10084700EB9FF5F0EA9E42F0E99D42F0E89C45F007
:01085700227E
:0C085800ECF0A3EDF0A3EEF0A3EFF02213
:10086400A8828583F0D083D08212087B12087B1281
:10087400087B12087BE473E493A3C583C5F0C583A6
:10088400C8C582C8F0A3C583C5F0C583C8C582C8DE
:010894002241
:10089500F8E0FBA3A3E0F925F0F0E58215827002EC
:0708A5001583E0FA38F02290
:0908AC00EBF0A3EAF0A3E9F0224D
:1008B500D083D082F8E4937012740193700DA3A3D2
:1008C50093F8740193F5828883E4737402936860E6
:0608D500EFA3A3A380DFE6
:101E150002172DE493A3F8E493A34003F68001F29F
:101E250008DFF48029E493A3F85407240CC8C333CE
:101E3500C4540F4420C8834004F456800146F6DF9D
:101E4500E4800B010204081020408090208EE47E7F
:101E5500019360BCA3FF543F30E509541FFEE49392
:101E6500A360010ECF54C025E060A840B8E493A359
:101E7500FAE493A3F8E493A3C8C582C8CAC583CA84
:101E8500F0A3C8C582C8CAC583CADFE9DEE780BE3C
:0120DC000003
:1008DB00BC000BBE0029EF8DF084FFADF022E4CC01
:1008EB00F875F008EF2FFFEE33FEEC33FCEE9DECCA
:1008FB00984005FCEE9DFE0FD5F0E9E4CEFD22ED10
:10090B00F8F5F0EE8420D21CFEADF075F008EF2F59
:10091B00FFED33FD4007985006D5F0F222C398FD4A
:05092B000FD5F0EA22E7
:00000001FF
